{
  "abi": [
    {
      "inputs": [
        {
          "internalType": "uint256",
          "name": "supply",
          "type": "uint256"
        },
        {
          "internalType": "contract ForwarderRegistry",
          "name": "forwarderRegistry",
          "type": "address"
        },
        {
          "internalType": "uint256",
          "name": "chainId_",
          "type": "uint256"
        }
      ],
      "stateMutability": "nonpayable",
      "type": "constructor"
    },
    {
      "anonymous": false,
      "inputs": [
        {
          "indexed": true,
          "internalType": "address",
          "name": "owner",
          "type": "address"
        },
        {
          "indexed": true,
          "internalType": "address",
          "name": "spender",
          "type": "address"
        },
        {
          "indexed": false,
          "internalType": "uint256",
          "name": "value",
          "type": "uint256"
        }
      ],
      "name": "Approval",
      "type": "event"
    },
    {
      "anonymous": false,
      "inputs": [
        {
          "indexed": true,
          "internalType": "address",
          "name": "from",
          "type": "address"
        },
        {
          "indexed": true,
          "internalType": "address",
          "name": "to",
          "type": "address"
        },
        {
          "indexed": false,
          "internalType": "uint256",
          "name": "value",
          "type": "uint256"
        }
      ],
      "name": "Transfer",
      "type": "event"
    },
    {
      "inputs": [],
      "name": "DOMAIN_SEPARATOR",
      "outputs": [
        {
          "internalType": "bytes32",
          "name": "",
          "type": "bytes32"
        }
      ],
      "stateMutability": "view",
      "type": "function"
    },
    {
      "inputs": [],
      "name": "PERMIT_TYPEHASH",
      "outputs": [
        {
          "internalType": "bytes32",
          "name": "",
          "type": "bytes32"
        }
      ],
      "stateMutability": "view",
      "type": "function"
    },
    {
      "inputs": [
        {
          "internalType": "address",
          "name": "owner",
          "type": "address"
        },
        {
          "internalType": "address",
          "name": "spender",
          "type": "address"
        }
      ],
      "name": "allowance",
      "outputs": [
        {
          "internalType": "uint256",
          "name": "remaining",
          "type": "uint256"
        }
      ],
      "stateMutability": "view",
      "type": "function"
    },
    {
      "inputs": [
        {
          "internalType": "address",
          "name": "spender",
          "type": "address"
        },
        {
          "internalType": "uint256",
          "name": "amount",
          "type": "uint256"
        }
      ],
      "name": "approve",
      "outputs": [
        {
          "internalType": "bool",
          "name": "success",
          "type": "bool"
        }
      ],
      "stateMutability": "nonpayable",
      "type": "function"
    },
    {
      "inputs": [
        {
          "internalType": "address",
          "name": "owner",
          "type": "address"
        }
      ],
      "name": "balanceOf",
      "outputs": [
        {
          "internalType": "uint256",
          "name": "",
          "type": "uint256"
        }
      ],
      "stateMutability": "view",
      "type": "function"
    },
    {
      "inputs": [],
      "name": "decimals",
      "outputs": [
        {
          "internalType": "uint8",
          "name": "",
          "type": "uint8"
        }
      ],
      "stateMutability": "pure",
      "type": "function"
    },
    {
      "inputs": [],
      "name": "name",
      "outputs": [
        {
          "internalType": "string",
          "name": "",
          "type": "string"
        }
      ],
      "stateMutability": "view",
      "type": "function"
    },
    {
      "inputs": [
        {
          "internalType": "address",
          "name": "",
          "type": "address"
        }
      ],
      "name": "nonces",
      "outputs": [
        {
          "internalType": "uint256",
          "name": "",
          "type": "uint256"
        }
      ],
      "stateMutability": "view",
      "type": "function"
    },
    {
      "inputs": [
        {
          "internalType": "address",
          "name": "holder",
          "type": "address"
        },
        {
          "internalType": "address",
          "name": "spender",
          "type": "address"
        },
        {
          "internalType": "uint256",
          "name": "nonce",
          "type": "uint256"
        },
        {
          "internalType": "uint256",
          "name": "expiry",
          "type": "uint256"
        },
        {
          "internalType": "bool",
          "name": "allowed",
          "type": "bool"
        },
        {
          "internalType": "uint8",
          "name": "v",
          "type": "uint8"
        },
        {
          "internalType": "bytes32",
          "name": "r",
          "type": "bytes32"
        },
        {
          "internalType": "bytes32",
          "name": "s",
          "type": "bytes32"
        }
      ],
      "name": "permit",
      "outputs": [],
      "stateMutability": "nonpayable",
      "type": "function"
    },
    {
      "inputs": [],
      "name": "symbol",
      "outputs": [
        {
          "internalType": "string",
          "name": "",
          "type": "string"
        }
      ],
      "stateMutability": "view",
      "type": "function"
    },
    {
      "inputs": [],
      "name": "totalSupply",
      "outputs": [
        {
          "internalType": "uint256",
          "name": "",
          "type": "uint256"
        }
      ],
      "stateMutability": "view",
      "type": "function"
    },
    {
      "inputs": [
        {
          "internalType": "address",
          "name": "to",
          "type": "address"
        },
        {
          "internalType": "uint256",
          "name": "amount",
          "type": "uint256"
        }
      ],
      "name": "transfer",
      "outputs": [
        {
          "internalType": "bool",
          "name": "success",
          "type": "bool"
        }
      ],
      "stateMutability": "nonpayable",
      "type": "function"
    },
    {
      "inputs": [
        {
          "internalType": "address",
          "name": "from",
          "type": "address"
        },
        {
          "internalType": "address",
          "name": "to",
          "type": "address"
        },
        {
          "internalType": "uint256",
          "name": "amount",
          "type": "uint256"
        }
      ],
      "name": "transferFrom",
      "outputs": [
        {
          "internalType": "bool",
          "name": "success",
          "type": "bool"
        }
      ],
      "stateMutability": "nonpayable",
      "type": "function"
    },
    {
      "inputs": [],
      "name": "version",
      "outputs": [
        {
          "internalType": "string",
          "name": "",
          "type": "string"
        }
      ],
      "stateMutability": "view",
      "type": "function"
    }
  ],
  "address": "0xb9aF474d42c1CE4627A771E50e72d4369171699B",
  "args": [
    "1000000000000000000000000000",
    "0x0000000000000000000000000000000000000000",
    "1337"
  ],
  "bytecode": "0x60c060405234801561001057600080fd5b50604051610d8f380380610d8f8339818101604052606081101561003357600080fd5b50805160208201516040928301516080839052925191929091806052610d3d8239604080519182900360520182208282018252600e83526d2230b49029ba30b13632b1b7b4b760911b6020938401528151808301835260018152603160f81b908401528151808401919091527f0b1461ddc0c1d5ded79a1db0f74dae949050a7c0b28728c724b24958c27a328b818301527fc89efdaa54c0f20c7adf612882df0950f5a951637e0307cdcb4c672f298b8bc6606082015260808101949094523060a08086019190915281518086038201815260c09095019091528351939091019290922090915250505060805160a051610bee61014f6000398061040452806105255250806103945280610b3b5280610b6e5250610bee6000f3fe608060405234801561001057600080fd5b50600436106100ea5760003560e01c806354fd4d501161008c5780638fcbaf0c116100665780638fcbaf0c1461027e57806395d89b41146102da578063a9059cbb146102e2578063dd62ed3e1461030e576100ea565b806354fd4d501461022a57806370a08231146102325780637ecebe0014610258576100ea565b806323b872dd116100c857806323b872dd146101c657806330adf81f146101fc578063313ce567146102045780633644e51514610222576100ea565b806306fdde03146100ef578063095ea7b31461016c57806318160ddd146101ac575b600080fd5b6100f761033c565b6040805160208082528351818301528351919283929083019185019080838360005b83811015610131578181015183820152602001610119565b50505050905090810190601f16801561015e5780820380516001836020036101000a031916815260200191505b509250505060405180910390f35b6101986004803603604081101561018257600080fd5b506001600160a01b038135169060200135610375565b604080519115158252519081900360200190f35b6101b4610392565b60408051918252519081900360200190f35b610198600480360360608110156101dc57600080fd5b506001600160a01b038135811691602081013590911690604001356103b6565b6101b46103d9565b61020c6103fd565b6040805160ff9092168252519081900360200190f35b6101b4610402565b6100f7610426565b6101b46004803603602081101561024857600080fd5b50356001600160a01b031661045f565b6101b46004803603602081101561026e57600080fd5b50356001600160a01b0316610473565b6102d8600480360361010081101561029557600080fd5b506001600160a01b038135811691602081013590911690604081013590606081013590608081013515159060ff60a0820135169060c08101359060e00135610485565b005b6100f7610813565b610198600480360360408110156102f857600080fd5b506001600160a01b03813516906020013561084c565b6101b46004803603604081101561032457600080fd5b506001600160a01b0381358116916020013516610860565b6040518060400160405280600e81526020017f44616920537461626c65636f696e00000000000000000000000000000000000081525081565b600061038961038261088b565b848461088f565b50600192915050565b7f000000000000000000000000000000000000000000000000000000000000000090565b6000806103c161088b565b90506103ce858585610962565b506001949350505050565b7fea2aa0a1be11a07ed86d755c93467f4f82362b452371d1ba94d1715123511acb81565b601290565b7f000000000000000000000000000000000000000000000000000000000000000081565b6040518060400160405280600181526020017f310000000000000000000000000000000000000000000000000000000000000081525081565b60008061046b83610b0c565b949350505050565b60046020526000908152604090205481565b604080517fea2aa0a1be11a07ed86d755c93467f4f82362b452371d1ba94d1715123511acb6020808301919091526001600160a01b03808c16838501819052908b166060840152608083018a905260a0830189905287151560c0808501919091528451808503909101815260e0840185528051908301207f19010000000000000000000000000000000000000000000000000000000000006101008501527f000000000000000000000000000000000000000000000000000000000000000061010285015261012280850191909152845180850390910181526101429093019093528151910120906105be576040805162461bcd60e51b815260206004820152601560248201527f4461692f696e76616c69642d616464726573732d300000000000000000000000604482015290519081900360640190fd5b6040805160008152602080820180845284905260ff8716828401526060820186905260808201859052915160019260a08084019391927fffffffffffffffffffffffffffffffffffffffffffffffffffffffffffffffe081019281900390910190855afa158015610633573d6000803e3d6000fd5b505050602060405103516001600160a01b0316896001600160a01b0316146106a2576040805162461bcd60e51b815260206004820152601260248201527f4461692f696e76616c69642d7065726d69740000000000000000000000000000604482015290519081900360640190fd5b8515806106af5750854211155b610700576040805162461bcd60e51b815260206004820152601260248201527f4461692f7065726d69742d657870697265640000000000000000000000000000604482015290519081900360640190fd5b6001600160a01b03891660009081526004602052604090208054600181019091558714610774576040805162461bcd60e51b815260206004820152601160248201527f4461692f696e76616c69642d6e6f6e6365000000000000000000000000000000604482015290519081900360640190fd5b6000856107825760006107a4565b7fffffffffffffffffffffffffffffffffffffffffffffffffffffffffffffffff5b6001600160a01b03808c166000818152600160209081526040808320948f168084529482529182902085905581518581529151949550929391927f8c5be1e5ebec7d5bd14f71427d1e84f3dd0314c0f7b2291e5b200ac8c7c3b92592918290030190a350505050505050505050565b6040518060400160405280600381526020017f444149000000000000000000000000000000000000000000000000000000000081525081565b600061038961085961088b565b8484610962565b6001600160a01b03918216600090815260016020908152604080832093909416825291909152205490565b3390565b6001600160a01b038316158015906108af57506001600160a01b03821615155b610900576040805162461bcd60e51b815260206004820152601760248201527f43616e6e6f7420617070726f7665207769746820307830000000000000000000604482015290519081900360640190fd5b6001600160a01b03808416600081815260016020908152604080832094871680845294825291829020859055815185815291517f8c5be1e5ebec7d5bd14f71427d1e84f3dd0314c0f7b2291e5b200ac8c7c3b9259281900390910190a3505050565b6001600160a01b0382166109bd576040805162461bcd60e51b815260206004820152601260248201527f43616e6e6f742073656e6420746f203078300000000000000000000000000000604482015290519081900360640190fd5b6000806109c985610b0c565b9150915082811015610a22576040805162461bcd60e51b815260206004820152600f60248201527f6e6f7420656e6f7567682066756e640000000000000000000000000000000000604482015290519081900360640190fd5b81610a535760028054820190556001600160a01b0385166000908152600360205260409020805460ff191660011790555b6001600160a01b03851660009081526020819052604090208382039055610a7984610b0c565b909250905081610aaf5760028054820190556001600160a01b0384166000908152600360205260409020805460ff191660011790555b6001600160a01b038085166000818152602081815260409182902085880190558151878152915192938916927fddf252ad1be2c89b69c2b068fc378daa952ba7f163c4a11628f55a4df523b3ef9281900390910190a35050505050565b6001600160a01b03811660009081526020818152604080832054600390925282205460ff16158015610b5f57507f0000000000000000000000000000000000000000000000000000000000000000600254105b15610bae5750506002546000907f000000000000000000000000000000000000000000000000000000000000000003678ac7230489e80000811115610ba95750678ac7230489e800005b610bb3565b600191505b91509156fea2646970667358221220f05eb538a0c536338db738090f8c150e13b9184e7f14f253178cc08a35e0f22f64736f6c63430006050033454950373132446f6d61696e28737472696e67206e616d652c737472696e672076657273696f6e2c75696e7432353620636861696e49642c6164647265737320766572696679696e67436f6e747261637429"
}