{
  "abi": [
    {
      "inputs": [
        {
          "internalType": "contract IRelayHub",
          "name": "relayHub",
          "type": "address"
        },
        {
          "internalType": "contract Dai",
          "name": "dai",
          "type": "address"
        },
        {
          "internalType": "address",
          "name": "weth",
          "type": "address"
        },
        {
          "internalType": "contract UniswapV2Router1",
          "name": "uniswapRouter",
          "type": "address"
        }
      ],
      "stateMutability": "nonpayable",
      "type": "constructor"
    },
    {
      "anonymous": false,
      "inputs": [
        {
          "indexed": false,
          "internalType": "uint256",
          "name": "gasUseWithoutPost",
          "type": "uint256"
        },
        {
          "indexed": false,
          "internalType": "uint256",
          "name": "ethActualCharge",
          "type": "uint256"
        },
        {
          "indexed": false,
          "internalType": "uint256",
          "name": "tokenActualCharge",
          "type": "uint256"
        }
      ],
      "name": "TokensCharged",
      "type": "event"
    },
    {
      "stateMutability": "payable",
      "type": "fallback"
    },
    {
      "inputs": [
        {
          "components": [
            {
              "internalType": "address",
              "name": "target",
              "type": "address"
            },
            {
              "internalType": "bytes",
              "name": "encodedFunction",
              "type": "bytes"
            },
            {
              "components": [
                {
                  "internalType": "uint256",
                  "name": "gasLimit",
                  "type": "uint256"
                },
                {
                  "internalType": "uint256",
                  "name": "gasPrice",
                  "type": "uint256"
                },
                {
                  "internalType": "uint256",
                  "name": "pctRelayFee",
                  "type": "uint256"
                },
                {
                  "internalType": "uint256",
                  "name": "baseRelayFee",
                  "type": "uint256"
                }
              ],
              "internalType": "struct GSNTypes.GasData",
              "name": "gasData",
              "type": "tuple"
            },
            {
              "components": [
                {
                  "internalType": "address",
                  "name": "senderAddress",
                  "type": "address"
                },
                {
                  "internalType": "uint256",
                  "name": "senderNonce",
                  "type": "uint256"
                },
                {
                  "internalType": "address",
                  "name": "relayWorker",
                  "type": "address"
                },
                {
                  "internalType": "address",
                  "name": "paymaster",
                  "type": "address"
                }
              ],
              "internalType": "struct GSNTypes.RelayData",
              "name": "relayData",
              "type": "tuple"
            }
          ],
          "internalType": "struct GSNTypes.RelayRequest",
          "name": "relayRequest",
          "type": "tuple"
        },
        {
          "internalType": "bytes",
          "name": "approvalData",
          "type": "bytes"
        },
        {
          "internalType": "uint256",
          "name": "maxPossibleGas",
          "type": "uint256"
        }
      ],
      "name": "acceptRelayedCall",
      "outputs": [
        {
          "internalType": "bytes",
          "name": "",
          "type": "bytes"
        }
      ],
      "stateMutability": "view",
      "type": "function"
    },
    {
      "inputs": [],
      "name": "deposit",
      "outputs": [],
      "stateMutability": "payable",
      "type": "function"
    },
    {
      "inputs": [],
      "name": "getGasLimits",
      "outputs": [
        {
          "components": [
            {
              "internalType": "uint256",
              "name": "acceptRelayedCallGasLimit",
              "type": "uint256"
            },
            {
              "internalType": "uint256",
              "name": "preRelayedCallGasLimit",
              "type": "uint256"
            },
            {
              "internalType": "uint256",
              "name": "postRelayedCallGasLimit",
              "type": "uint256"
            }
          ],
          "internalType": "struct GSNTypes.GasLimits",
          "name": "limits",
          "type": "tuple"
        }
      ],
      "stateMutability": "view",
      "type": "function"
    },
    {
      "inputs": [],
      "name": "getHubAddr",
      "outputs": [
        {
          "internalType": "address",
          "name": "",
          "type": "address"
        }
      ],
      "stateMutability": "view",
      "type": "function"
    },
    {
      "inputs": [],
      "name": "getRelayHubDeposit",
      "outputs": [
        {
          "internalType": "uint256",
          "name": "",
          "type": "uint256"
        }
      ],
      "stateMutability": "view",
      "type": "function"
    },
    {
      "inputs": [
        {
          "internalType": "bytes",
          "name": "context",
          "type": "bytes"
        },
        {
          "internalType": "bool",
          "name": "success",
          "type": "bool"
        },
        {
          "internalType": "bytes32",
          "name": "preRetVal",
          "type": "bytes32"
        },
        {
          "internalType": "uint256",
          "name": "gasUseWithoutPost",
          "type": "uint256"
        },
        {
          "components": [
            {
              "internalType": "uint256",
              "name": "gasLimit",
              "type": "uint256"
            },
            {
              "internalType": "uint256",
              "name": "gasPrice",
              "type": "uint256"
            },
            {
              "internalType": "uint256",
              "name": "pctRelayFee",
              "type": "uint256"
            },
            {
              "internalType": "uint256",
              "name": "baseRelayFee",
              "type": "uint256"
            }
          ],
          "internalType": "struct GSNTypes.GasData",
          "name": "gasData",
          "type": "tuple"
        }
      ],
      "name": "postRelayedCall",
      "outputs": [],
      "stateMutability": "nonpayable",
      "type": "function"
    },
    {
      "inputs": [
        {
          "internalType": "bytes",
          "name": "context",
          "type": "bytes"
        }
      ],
      "name": "preRelayedCall",
      "outputs": [
        {
          "internalType": "bytes32",
          "name": "",
          "type": "bytes32"
        }
      ],
      "stateMutability": "nonpayable",
      "type": "function"
    },
    {
      "stateMutability": "payable",
      "type": "receive"
    }
  ],
  "address": "0x44e419070174b4fcad020bB3b8330c4c2481F87A",
  "args": [
    "0xBEE0C6C405847203De86492F7753b4d0A379C20F",
    "0xecc11F2C4c6c263122D9933Ce88Ef433032043B4",
    "0x0000000000000000000000000000000000000001",
    "0x869f7A880857aB0fD903742a95c9F463E8Edc35E"
  ],
  "bytecode": "0x6101206040523480156200001257600080fd5b5060405162001e8d38038062001e8d8339810160408190526200003591620001bb565b6001600160601b0319606085901b1660805260408051633644e51560e01b815290516001600160a01b03851691633644e515916004808301926020929190829003018186803b1580156200008857600080fd5b505afa1580156200009d573d6000803e3d6000fd5b505050506040513d601f19601f82011682018060405250810190620000c39190620001a2565b6101005260405163095ea7b360e01b81526001600160a01b0384169063095ea7b390620000f99084906000199060040162000222565b602060405180830381600087803b1580156200011457600080fd5b505af115801562000129573d6000803e3d6000fd5b505050506040513d601f19601f820116820180604052508101906200014f919062000179565b506001600160601b0319606093841b811660a05291831b821660c05290911b1660e0525062000254565b6000602082840312156200018b578081fd5b815180151581146200019b578182fd5b9392505050565b600060208284031215620001b4578081fd5b5051919050565b60008060008060808587031215620001d1578283fd5b8451620001de816200023b565b6020860151909450620001f1816200023b565b604086015190935062000204816200023b565b606086015190925062000217816200023b565b939692955090935050565b6001600160a01b03929092168252602082015260400190565b6001600160a01b03811681146200025157600080fd5b50565b60805160601c60a05160601c60c05160601c60e05160601c61010051611b93620002fa60003980610ffd525080610bb65280610ef1525080610b4c5280610e3652508061032652806104b8528061058b528061088d5280610a355280610afe5280610d7a5280610e8452806111995250806101945280610250528061027f52806103d952806106bc528061073252806107c6528061096e5280610ca05250611b936000f3fe6080604052600436106100745760003560e01c806380274db71161004e57806380274db7146100ec578063b1ed031f1461010c578063d0e30db014610139578063fbfbd0f2146101415761007b565b80632afe31c11461007d5780635ea54eee146100a857806374e861d6146100ca5761007b565b3661007b57005b005b34801561008957600080fd5b50610092610161565b60405161009f9190611760565b60405180910390f35b3480156100b457600080fd5b506100bd61021e565b60405161009f9190611a25565b3480156100d657600080fd5b506100df61024e565b60405161009f9190611666565b3480156100f857600080fd5b50610092610107366004611433565b610272565b34801561011857600080fd5b5061012c610127366004611513565b6103bf565b60405161009f91906117bd565b61007b61068c565b34801561014d57600080fd5b5061007b61015c366004611473565b610727565b6040517f70a082310000000000000000000000000000000000000000000000000000000081526000906001600160a01b037f000000000000000000000000000000000000000000000000000000000000000016906370a08231906101c9903090600401611666565b60206040518083038186803b1580156101e157600080fd5b505afa1580156101f5573d6000803e3d6000fd5b505050506040513d601f19601f820116820180604052508101906102199190611587565b905090565b61022661124c565b604051806060016040528061c350815260200162030d40815260200162086470815250905090565b7f000000000000000000000000000000000000000000000000000000000000000090565b6000336001600160a01b037f000000000000000000000000000000000000000000000000000000000000000016146102c55760405162461bcd60e51b81526004016102bc90611923565b60405180910390fd5b60008060606102d6858701876112d7565b9250925092506000815111156102f0576102f08382610d52565b81156103b3576040517f23b872dd0000000000000000000000000000000000000000000000000000000081526001600160a01b037f000000000000000000000000000000000000000000000000000000000000000016906323b872dd9061035f90869030908790600401611694565b602060405180830381600087803b15801561037957600080fd5b505af115801561038d573d6000803e3d6000fd5b505050506040513d601f19601f820116820180604052508101906103b19190611417565b505b50600095945050505050565b606060006103d360e0870160c088016112b4565b905060007f00000000000000000000000000000000000000000000000000000000000000006001600160a01b03166311d7748685896040016040518363ffffffff1660e01b8152600401610428929190611a67565b60206040518083038186803b15801561044057600080fd5b505afa158015610454573d6000803e3d6000fd5b505050506040513d601f19601f820116820180604052508101906104789190611587565b9050600061048582610e0e565b6040517f70a082310000000000000000000000000000000000000000000000000000000081529091506001600160a01b037f000000000000000000000000000000000000000000000000000000000000000016906370a08231906104ed908690600401611666565b60206040518083038186803b15801561050557600080fd5b505afa158015610519573d6000803e3d6000fd5b505050506040513d601f19601f8201168201806040525081019061053d9190611587565b811061055b5760405162461bcd60e51b81526004016102bc9061187e565b6040517fdd62ed3e0000000000000000000000000000000000000000000000000000000081526001600160a01b037f0000000000000000000000000000000000000000000000000000000000000000169063dd62ed3e906105c2908690309060040161167a565b60206040518083038186803b1580156105da57600080fd5b505afa1580156105ee573d6000803e3d6000fd5b505050506040513d601f19601f820116820180604052508101906106129190611587565b811115610659576106598388888080601f016020809104026020016040519081016040528093929190818152602001838380828437600092019190915250610f9c92505050565b82818888604051602001610670949392919061171a565b6040516020818303038152906040529350505050949350505050565b6040517faa67c9190000000000000000000000000000000000000000000000000000000081526001600160a01b037f0000000000000000000000000000000000000000000000000000000000000000169063aa67c9199034906106f3903090600401611666565b6000604051808303818588803b15801561070c57600080fd5b505af1158015610720573d6000803e3d6000fd5b5050505050565b336001600160a01b037f0000000000000000000000000000000000000000000000000000000000000000161461076f5760405162461bcd60e51b81526004016102bc90611923565b60008061077e878901896112d7565b509150915060008060008360001415610939576040517f11d7748600000000000000000000000000000000000000000000000000000000815261271092506001600160a01b037f000000000000000000000000000000000000000000000000000000000000000016906311d77486906107ff908a8601908a90600401611a67565b60206040518083038186803b15801561081757600080fd5b505afa15801561082b573d6000803e3d6000fd5b505050506040513d601f19601f8201168201806040525081019061084f9190611587565b925061085a83610e0e565b6040517f23b872dd0000000000000000000000000000000000000000000000000000000081529091506001600160a01b037f000000000000000000000000000000000000000000000000000000000000000016906323b872dd906108c690889030908690600401611694565b602060405180830381600087803b1580156108e057600080fd5b505af11580156108f4573d6000803e3d6000fd5b505050506040513d601f19601f820116820180604052508101906109189190611417565b6109345760405162461bcd60e51b81526004016102bc906119ee565b610adc565b6040517f11d7748600000000000000000000000000000000000000000000000000000000815261271092506001600160a01b037f000000000000000000000000000000000000000000000000000000000000000016906311d77486906109a7908a8601908a90600401611a67565b60206040518083038186803b1580156109bf57600080fd5b505afa1580156109d3573d6000803e3d6000fd5b505050506040513d601f19601f820116820180604052508101906109f79190611587565b9250610a0283610e0e565b6040517fa9059cbb0000000000000000000000000000000000000000000000000000000081529091506001600160a01b037f0000000000000000000000000000000000000000000000000000000000000000169063a9059cbb90610a6e90889085890390600401611701565b602060405180830381600087803b158015610a8857600080fd5b505af1158015610a9c573d6000803e3d6000fd5b505050506040513d601f19601f82011682018060405250810190610ac09190611417565b610adc5760405162461bcd60e51b81526004016102bc90611847565b60408051600280825260608083018452926020830190803683370190505090507f000000000000000000000000000000000000000000000000000000000000000081600081518110610b2a57fe5b60200260200101906001600160a01b031690816001600160a01b0316815250507f000000000000000000000000000000000000000000000000000000000000000081600181518110610b7857fe5b6001600160a01b0392831660209182029290920101526040517f4a25d94a0000000000000000000000000000000000000000000000000000000081527f000000000000000000000000000000000000000000000000000000000000000090911690634a25d94a90610c199087907fffffffffffffffffffffffffffffffffffffffffffffffffffffffffffffffff9086903090610384420190600401611a9e565b600060405180830381600087803b158015610c3357600080fd5b505af1158015610c47573d6000803e3d6000fd5b505050506040513d6000823e601f3d908101601f19168201604052610c6f919081019061137f565b506040517faa67c9190000000000000000000000000000000000000000000000000000000081526001600160a01b037f0000000000000000000000000000000000000000000000000000000000000000169063aa67c919908690610cd7903090600401611666565b6000604051808303818588803b158015610cf057600080fd5b505af1158015610d04573d6000803e3d6000fd5b50505050507fdfaf8024dc946ba1ddbc9d8eae15115200a54ee96e1d1b63bcae06e112f1a740888584604051610d3c93929190611ada565b60405180910390a1505050505050505050505050565b600080600080600085806020019051810190610d6e919061159f565b945094509450945094507f00000000000000000000000000000000000000000000000000000000000000006001600160a01b0316638fcbaf0c8830888860018989896040518963ffffffff1660e01b8152600401610dd39897969594939291906116b8565b600060405180830381600087803b158015610ded57600080fd5b505af1158015610e01573d6000803e3d6000fd5b5050505050505050505050565b60408051600280825260608083018452600093909291906020830190803683370190505090507f000000000000000000000000000000000000000000000000000000000000000081600081518110610e6257fe5b60200260200101906001600160a01b031690816001600160a01b0316815250507f000000000000000000000000000000000000000000000000000000000000000081600181518110610eb057fe5b6001600160a01b0392831660209182029290920101526040517fd06ca61f0000000000000000000000000000000000000000000000000000000081526060917f0000000000000000000000000000000000000000000000000000000000000000169063d06ca61f90610f289087908690600401611a46565b60006040518083038186803b158015610f4057600080fd5b505afa158015610f54573d6000803e3d6000fd5b505050506040513d6000823e601f3d908101601f19168201604052610f7c919081019061137f565b905080600181518110610f8b57fe5b602002602001015192505050919050565b600080600080600085806020019051810190610fb8919061159f565b94509450945094509450610fd3873087876001888888610ff8565b610fef5760405162461bcd60e51b81526004016102bc906119b7565b50505050505050565b6000807f00000000000000000000000000000000000000000000000000000000000000007fea2aa0a1be11a07ed86d755c93467f4f82362b452371d1ba94d1715123511acb60001b8b8b8b8b8b60405160200161105a96959493929190611769565b60405160208183030381529060405280519060200120604051602001611081929190611630565b60408051601f19818403018152919052805160209091012090506001600160a01b038a166110c15760405162461bcd60e51b81526004016102bc906118ec565b600181868686604051600081526020016040526040516110e4949392919061179f565b6020604051602081039080840390855afa158015611106573d6000803e3d6000fd5b505050602060405103516001600160a01b03168a6001600160a01b0316146111405760405162461bcd60e51b81526004016102bc90611980565b86158061114d5750864211155b6111695760405162461bcd60e51b81526004016102bc90611810565b6040517f7ecebe000000000000000000000000000000000000000000000000000000000081526001600160a01b037f00000000000000000000000000000000000000000000000000000000000000001690637ecebe00906111ce908d90600401611666565b60206040518083038186803b1580156111e657600080fd5b505afa1580156111fa573d6000803e3d6000fd5b505050506040513d601f19601f8201168201806040525081019061121e9190611587565b881461123c5760405162461bcd60e51b81526004016102bc906118b5565b5060019998505050505050505050565b60405180606001604052806000815260200160008152602001600081525090565b60008083601f84011261127e578182fd5b50813567ffffffffffffffff811115611295578182fd5b6020830191508360208285010111156112ad57600080fd5b9250929050565b6000602082840312156112c5578081fd5b81356112d081611b37565b9392505050565b6000806000606084860312156112eb578182fd5b83356112f681611b37565b92506020848101359250604085013567ffffffffffffffff8082111561131a578384fd5b81870188601f82011261132b578485fd5b803592508183111561133b578485fd5b61134d84601f19601f86011601611af0565b91508282528884848301011115611362578485fd5b828482018584013750838383830101528093505050509250925092565b60006020808385031215611391578182fd5b825167ffffffffffffffff8111156113a7578283fd5b80840185601f8201126113b8578384fd5b805191506113cd6113c883611b17565b611af0565b82815283810190828501858502840186018910156113e9578687fd5b8693505b8484101561140b5780518352600193909301929185019185016113ed565b50979650505050505050565b600060208284031215611428578081fd5b81516112d081611b4f565b60008060208385031215611445578182fd5b823567ffffffffffffffff81111561145b578283fd5b6114678582860161126d565b90969095509350505050565b60008060008060008086880361010081121561148d578283fd5b873567ffffffffffffffff8111156114a3578384fd5b6114af8a828b0161126d565b90985096505060208801356114c381611b4f565b9450604088013593506060880135925060807fffffffffffffffffffffffffffffffffffffffffffffffffffffffffffffff8082011215611502578182fd5b506080870190509295509295509295565b60008060008060608587031215611528578384fd5b843567ffffffffffffffff8082111561153f578586fd5b818701610140818a031215611552578687fd5b95506020870135915080821115611567578485fd5b506115748782880161126d565b9598909750949560400135949350505050565b600060208284031215611598578081fd5b5051919050565b600080600080600060a086880312156115b6578081fd5b8551945060208601519350604086015160ff811681146115d4578182fd5b6060870151608090970151959894975095949392505050565b6000815180845260208085019450808401835b838110156116255781516001600160a01b031687529582019590820190600101611600565b509495945050505050565b7f190100000000000000000000000000000000000000000000000000000000000081526002810192909252602282015260420190565b6001600160a01b0391909116815260200190565b6001600160a01b0392831681529116602082015260400190565b6001600160a01b039384168152919092166020820152604081019190915260600190565b6001600160a01b039889168152969097166020870152604086019490945260608501929092521515608084015260ff1660a083015260c082015260e08101919091526101000190565b6001600160a01b03929092168252602082015260400190565b60006001600160a01b03861682528460208301526060604083015282606083015282846080840137818301608090810191909152601f909201601f191601019392505050565b90815260200190565b9586526001600160a01b03948516602087015292909316604085015260608401526080830191909152151560a082015260c00190565b93845260ff9290921660208401526040830152606082015260800190565b6000602080835283518082850152825b818110156117e9578581018301518582016040015282016117cd565b818111156117fa5783604083870101525b50601f01601f1916929092016040019392505050565b60208082526012908201527f4461692f7065726d69742d657870697265640000000000000000000000000000604082015260600190565b6020808252600d908201527f6661696c656420726566756e6400000000000000000000000000000000000000604082015260600190565b6020808252600f908201527f62616c616e636520746f6f206c6f770000000000000000000000000000000000604082015260600190565b60208082526011908201527f4461692f696e76616c69642d6e6f6e6365000000000000000000000000000000604082015260600190565b60208082526015908201527f4461692f696e76616c69642d616464726573732d300000000000000000000000604082015260600190565b60208082526027908201527f46756e6374696f6e2063616e206f6e6c792062652063616c6c6564206279205260408201527f656c617948756200000000000000000000000000000000000000000000000000606082015260800190565b60208082526012908201527f4461692f696e76616c69642d7065726d69740000000000000000000000000000604082015260600190565b6020808252600e908201527f696e76616c6964207065726d6974000000000000000000000000000000000000604082015260600190565b6020808252600f908201527f6661696c6564207472616e736665720000000000000000000000000000000000604082015260600190565b81518152602080830151908201526040918201519181019190915260600190565b600083825260406020830152611a5f60408301846115ed565b949350505050565b600060a082019050838252823560208301526020830135604083015260408301356060830152606083013560808301529392505050565b600086825285602083015260a06040830152611abd60a08301866115ed565b6001600160a01b0394909416606083015250608001529392505050565b9283526020830191909152604082015260600190565b60405181810167ffffffffffffffff81118282101715611b0f57600080fd5b604052919050565b600067ffffffffffffffff821115611b2d578081fd5b5060209081020190565b6001600160a01b0381168114611b4c57600080fd5b50565b8015158114611b4c57600080fdfea2646970667358221220de0c2ac1d34462aaefc7066438cf38f150d49d60db4cf4092597ed8f1d218ac464736f6c63430006050033"
}