{
  "abi": [
    {
      "inputs": [],
      "stateMutability": "nonpayable",
      "type": "constructor"
    },
    {
      "anonymous": false,
      "inputs": [
        {
          "indexed": true,
          "internalType": "address",
          "name": "user",
          "type": "address"
        },
        {
          "indexed": false,
          "internalType": "string",
          "name": "name",
          "type": "string"
        }
      ],
      "name": "NameChanged",
      "type": "event"
    },
    {
      "inputs": [
        {
          "internalType": "string",
          "name": "name",
          "type": "string"
        }
      ],
      "name": "setName",
      "outputs": [],
      "stateMutability": "nonpayable",
      "type": "function"
    }
  ],
  "address": "0xecc11F2C4c6c263122D9933Ce88Ef433032043B4",
  "args": [],
  "bytecode": "0x608060405234801561001057600080fd5b50600180546001600160a01b03191633179055610245806100326000396000f3fe608060405234801561001057600080fd5b506004361061002b5760003560e01c8063c47f002714610030575b600080fd5b6100a06004803603602081101561004657600080fd5b81019060208101813564010000000081111561006157600080fd5b82018360208201111561007357600080fd5b8035906020019184600183028401116401000000008311171561009557600080fd5b5090925090506100a2565b005b3360009081526020819052604090206100bc908383610156565b503373ffffffffffffffffffffffffffffffffffffffff167f3b0a43ccc1ccd1c76ebb1a8d998fdfe1ded3766582dbbbcdda83889170bec53d838360405180806020018281038252848482818152602001925080828437600083820152604051601f9091017fffffffffffffffffffffffffffffffffffffffffffffffffffffffffffffffe0169092018290039550909350505050a25050565b828054600181600116156101000203166002900490600052602060002090601f016020900481019282601f106101b5578280017fffffffffffffffffffffffffffffffffffffffffffffffffffffffffffffff008235161785556101e2565b828001600101855582156101e2579182015b828111156101e25782358255916020019190600101906101c7565b506101ee9291506101f2565b5090565b61020c91905b808211156101ee57600081556001016101f8565b9056fea2646970667358221220b4b16c212c3bad1eaec415a9fb00a92dc04f831c583d34f93e7dc5e5bcb508fc64736f6c63430006050033"
}