{
  "abi": [
    {
      "inputs": [
        {
          "internalType": "contract ForwarderRegistry",
          "name": "forwarderRegistry",
          "type": "address"
        },
        {
          "internalType": "address",
          "name": "trustedForwarder",
          "type": "address"
        }
      ],
      "stateMutability": "nonpayable",
      "type": "constructor"
    },
    {
      "anonymous": false,
      "inputs": [
        {
          "indexed": true,
          "internalType": "address",
          "name": "user",
          "type": "address"
        },
        {
          "indexed": false,
          "internalType": "string",
          "name": "name",
          "type": "string"
        }
      ],
      "name": "NameChanged",
      "type": "event"
    },
    {
      "inputs": [],
      "name": "getTrustedForwarder",
      "outputs": [
        {
          "internalType": "address",
          "name": "",
          "type": "address"
        }
      ],
      "stateMutability": "view",
      "type": "function"
    },
    {
      "inputs": [
        {
          "internalType": "string",
          "name": "name",
          "type": "string"
        }
      ],
      "name": "setName",
      "outputs": [],
      "stateMutability": "nonpayable",
      "type": "function"
    }
  ],
  "address": "0x3037e0B21e7B8E0BaBAF3611D6D0d5CaC51e67C0",
  "args": [
    "0x8E7fe26181E585A228B0c4392c98C5c6c09B8D98",
    "0xac0EA884D2763Ab2A73851820Dd0e6a8f1cAf8e0"
  ],
  "bytecode": "0x60c060405234801561001057600080fd5b506040516105163803806105168339818101604052604081101561003357600080fd5b5080516020909101516001600160601b0319606092831b8116608052911b1660a052600180546001600160a01b0319163317905560805160601c60a05160601c61047c61009a600039806101b85280610223525080610264528061030a525061047c6000f3fe608060405234801561001057600080fd5b50600436106100365760003560e01c8063c47f00271461003b578063ce1b815f146100ad575b600080fd5b6100ab6004803603602081101561005157600080fd5b81019060208101813564010000000081111561006c57600080fd5b82018360208201111561007e57600080fd5b803590602001918460018302840111640100000000831117156100a057600080fd5b5090925090506100de565b005b6100b56101b6565b6040805173ffffffffffffffffffffffffffffffffffffffff9092168252519081900360200190f35b60006100e86101db565b73ffffffffffffffffffffffffffffffffffffffff8116600090815260208190526040902090915061011b908484610390565b508073ffffffffffffffffffffffffffffffffffffffff167f3b0a43ccc1ccd1c76ebb1a8d998fdfe1ded3766582dbbbcdda83889170bec53d848460405180806020018281038252848482818152602001925080828437600083820152604051601f9091017fffffffffffffffffffffffffffffffffffffffffffffffffffffffffffffffe0169092018290039550909350505050a2505050565b7f00000000000000000000000000000000000000000000000000000000000000005b90565b600060606000368080601f01602080910402602001604051908101604052809392919081815260200183838082843760009201919091525050505036818101519350909150337f000000000000000000000000000000000000000000000000000000000000000073ffffffffffffffffffffffffffffffffffffffff1681148015906102b357507f000000000000000000000000000000000000000000000000000000000000000073ffffffffffffffffffffffffffffffffffffffff168173ffffffffffffffffffffffffffffffffffffffff1614155b80156103815750604080517fe60125d600000000000000000000000000000000000000000000000000000000815273ffffffffffffffffffffffffffffffffffffffff8681166004830152838116602483015291517f00000000000000000000000000000000000000000000000000000000000000009092169163e60125d691604480820192602092909190829003018186803b15801561035357600080fd5b505afa158015610367573d6000803e3d6000fd5b505050506040513d602081101561037d57600080fd5b5051155b1561038a578093505b50505090565b828054600181600116156101000203166002900490600052602060002090601f016020900481019282601f106103ef578280017fffffffffffffffffffffffffffffffffffffffffffffffffffffffffffffff0082351617855561041c565b8280016001018555821561041c579182015b8281111561041c578235825591602001919060010190610401565b5061042892915061042c565b5090565b6101d891905b80821115610428576000815560010161043256fea2646970667358221220c9c330fd0222f7b59019886e725bc7613089e1138299b6a27f6c068b260bdbd164736f6c63430006050033"
}