{
  "abi": [
    {
      "inputs": [
        {
          "internalType": "address",
          "name": "gsnForwarder",
          "type": "address"
        },
        {
          "internalType": "uint256",
          "name": "chainId",
          "type": "uint256"
        }
      ],
      "stateMutability": "nonpayable",
      "type": "constructor"
    },
    {
      "anonymous": false,
      "inputs": [
        {
          "indexed": true,
          "internalType": "address",
          "name": "signer",
          "type": "address"
        },
        {
          "indexed": true,
          "internalType": "address",
          "name": "forwarder",
          "type": "address"
        },
        {
          "indexed": false,
          "internalType": "bool",
          "name": "approved",
          "type": "bool"
        },
        {
          "indexed": false,
          "internalType": "uint256",
          "name": "nonce",
          "type": "uint256"
        }
      ],
      "name": "ForwarderApproved",
      "type": "event"
    },
    {
      "inputs": [
        {
          "internalType": "bytes",
          "name": "signature",
          "type": "bytes"
        },
        {
          "internalType": "address",
          "name": "to",
          "type": "address"
        },
        {
          "internalType": "bytes",
          "name": "data",
          "type": "bytes"
        }
      ],
      "name": "approveAndForward",
      "outputs": [],
      "stateMutability": "payable",
      "type": "function"
    },
    {
      "inputs": [
        {
          "internalType": "bool",
          "name": "approved",
          "type": "bool"
        },
        {
          "internalType": "bytes",
          "name": "signature",
          "type": "bytes"
        }
      ],
      "name": "approveForwarder",
      "outputs": [],
      "stateMutability": "nonpayable",
      "type": "function"
    },
    {
      "inputs": [
        {
          "internalType": "address",
          "name": "signer",
          "type": "address"
        },
        {
          "internalType": "address",
          "name": "forwarder",
          "type": "address"
        }
      ],
      "name": "getNonce",
      "outputs": [
        {
          "internalType": "uint256",
          "name": "",
          "type": "uint256"
        }
      ],
      "stateMutability": "view",
      "type": "function"
    },
    {
      "inputs": [],
      "name": "getTrustedForwarder",
      "outputs": [
        {
          "internalType": "address",
          "name": "",
          "type": "address"
        }
      ],
      "stateMutability": "view",
      "type": "function"
    },
    {
      "inputs": [
        {
          "internalType": "address",
          "name": "signer",
          "type": "address"
        },
        {
          "internalType": "address",
          "name": "forwarder",
          "type": "address"
        }
      ],
      "name": "isForwarderFor",
      "outputs": [
        {
          "internalType": "bool",
          "name": "",
          "type": "bool"
        }
      ],
      "stateMutability": "view",
      "type": "function"
    }
  ],
  "address": "0xC7Eceae16A1894E3312c17E30453706a729B21CE",
  "args": [
    "0x6453D37248Ab2C16eBd1A8f782a2CBC65860E60B",
    42
  ],
  "bytecode": "0x60c060405234801561001057600080fd5b50604051610f79380380610f798339818101604052604081101561003357600080fd5b508051602090910151606082901b6001600160601b03191660805260a08190526001600160a01b0390911690610efd61007c60003980610e2e5250806104265250610efd6000f3fe60806040526004361061005a5760003560e01c8063ce1b815f11610043578063ce1b815f146101b6578063d828435d146101e7578063e60125d6146102345761005a565b8063725d3ab71461005f578063a00d1c0614610130575b600080fd5b61012e6004803603606081101561007557600080fd5b81019060208101813564010000000081111561009057600080fd5b8201836020820111156100a257600080fd5b803590602001918460018302840111640100000000831117156100c457600080fd5b919390926001600160a01b03833516926040810190602001356401000000008111156100ef57600080fd5b82018360208201111561010157600080fd5b8035906020019184600183028401116401000000008311171561012357600080fd5b509092509050610283565b005b34801561013c57600080fd5b5061012e6004803603604081101561015357600080fd5b81351515919081019060408101602082013564010000000081111561017757600080fd5b82018360208201111561018957600080fd5b803590602001918460018302840111640100000000831117156101ab57600080fd5b5090925090506103d7565b3480156101c257600080fd5b506101cb610424565b604080516001600160a01b039092168252519081900360200190f35b3480156101f357600080fd5b506102226004803603604081101561020a57600080fd5b506001600160a01b0381358116916020013516610448565b60408051918252519081900360200190f35b34801561024057600080fd5b5061026f6004803603604081101561025757600080fd5b506001600160a01b0381358116916020013516610492565b604080519115158252519081900360200190f35b600061028d6104fb565b90506102d181600188888080601f01602080910402602001604051908101604052809392919081815260200183838082843760009201919091525061053f92505050565b6000846001600160a01b0316348585856040516020018084848082843780830192505050826001600160a01b03166001600160a01b031660601b815260140193505050506040516020818303038152906040526040518082805190602001908083835b602083106103535780518252601f199092019160209182019101610334565b6001836020036101000a03801982511681845116808217855250505050505090500191505060006040518083038185875af1925050503d80600081146103b5576040519150601f19603f3d011682016040523d82523d6000602084013e6103ba565b606091505b50509050806103ce573d806000803e806000fd5b50505050505050565b61041f6103e26104fb565b8484848080601f01602080910402602001604051908101604052809392919081815260200183838082843760009201919091525061053f92505050565b505050565b7f000000000000000000000000000000000000000000000000000000000000000090565b6001600160a01b039182166000908152602081815260408083209390941682529190915220547effffffffffffffffffffffffffffffffffffffffffffffffffffffffffffff1690565b60006001600160a01b0382163014806104f457506001600160a01b03838116600090815260208181526040808320938616835292905220547f0100000000000000000000000000000000000000000000000000000000000000900460ff166001145b9392505050565b600060606000368080601f01602080910402602001604051908101604052809392919081815260200183838082843760009201919091525050505036015192915050565b6001600160a01b03831660009081526020818152604080832033808552925290912080547effffffffffffffffffffffffffffffffffffffffffffffffffffffffffffff16606061059287838689610b0d565b905061059d87610c4b565b156109b957604080517f20c13b0b000000000000000000000000000000000000000000000000000000008152600481019182528251604482015282516001600160a01b038a16926320c13b0b9285928a92918291602482019160640190602087019080838360005b8381101561061d578181015183820152602001610605565b50505050905090810190601f16801561064a5780820380516001836020036101000a031916815260200191505b50838103825284518152845160209182019186019080838360005b8381101561067d578181015183820152602001610665565b50505050905090810190601f1680156106aa5780820380516001836020036101000a031916815260200191505b5094505050505060206040518083038186803b1580156106c957600080fd5b505afa9250505080156106ee57506040513d60208110156106e957600080fd5b505160015b610728573d80801561071c576040519150601f19603f3d011682016040523d82523d6000602084013e610721565b606091505b50506107c0565b7fffffffff0000000000000000000000000000000000000000000000000000000081167f20c13b0b00000000000000000000000000000000000000000000000000000000146107be576040805162461bcd60e51b815260206004820152601660248201527f5349474e41545552455f313237315f494e56414c494400000000000000000000604482015290519081900360640190fd5b505b866001600160a01b0316631626ba7e8280519060200120876040518363ffffffff1660e01b81526004018083815260200180602001828103825283818151815260200191508051906020019080838360005b8381101561082a578181015183820152602001610812565b50505050905090810190601f1680156108575780820380516001836020036101000a031916815260200191505b50935050505060206040518083038186803b15801561087557600080fd5b505afa92505050801561089a57506040513d602081101561089557600080fd5b505160015b6108d4573d8080156108c8576040519150601f19603f3d011682016040523d82523d6000602084013e6108cd565b606091505b505061096c565b7fffffffff0000000000000000000000000000000000000000000000000000000081167f1626ba7e000000000000000000000000000000000000000000000000000000001461096a576040805162461bcd60e51b815260206004820152601660248201527f5349474e41545552455f313635345f494e56414c494400000000000000000000604482015290519081900360640190fd5b505b6040805162461bcd60e51b815260206004820152601f60248201527f4e4f5f535550504f525445445f434f4e54524143545f5349474e415455524500604482015290519081900360640190fd5b6109ca818051906020012086610c87565b6001600160a01b0316876001600160a01b031614610a2f576040805162461bcd60e51b815260206004820152601160248201527f5349474e41545552455f494e56414c4944000000000000000000000000000000604482015290519081900360640190fd5b85610a3b576000610a3e565b60015b8354600184017effffffffffffffffffffffffffffffffffffffffffffffffffffffffffffff90811660ff939093167f0100000000000000000000000000000000000000000000000000000000000000029116177fff00000000000000000000000000000000000000000000000000000000000000161783556040805187151581526020810184905281516001600160a01b0380881693908b16927f26eeb9a45fc0ed1a714977219563a1ae73a8da96bc19e08479dab98729dec65a929081900390910190a350505050505050565b60606040518080610e9f60299139604080519182900360290182207f466f7277617264657252656769737472790000000000000000000000000000008352905191829003601101909120909150610b62610e2c565b604051602001808481526020018381526020018281526020019350505050604051602081830303815290604052805190602001206040518080610e51604e91396040805191829003604e0182206020808401919091526001600160a01b03808b1684840152606084018a90528816608084015286151560a0808501919091528251808503909101815260c08401835280519101207f190100000000000000000000000000000000000000000000000000000000000060e084015260e283019490945261010280830194909452805180830390940184526101229091019052509050949350505050565b60007fc5d2460186f7233c927e7db2dcc703c0e500b653ca82273b7bfad8045d85a470823f8015801590610c7f5750818114155b949350505050565b60008151604114610cdf576040805162461bcd60e51b815260206004820152601860248201527f5349474e41545552455f494e56414c49445f4c454e4754480000000000000000604482015290519081900360640190fd5b60208201516040830151606084015160001a601b811015610cfe57601b015b8060ff16601b1480610d1357508060ff16601c145b610d64576040805162461bcd60e51b815260206004820152601360248201527f5349474e41545552455f494e56414c49445f5600000000000000000000000000604482015290519081900360640190fd5b6040805160008152602080820180845289905260ff8416828401526060820186905260808201859052915160019260a0808401939192601f1981019281900390910190855afa158015610dbb573d6000803e3d6000fd5b5050604051601f1901519450506001600160a01b038416610e23576040805162461bcd60e51b815260206004820152601660248201527f5349474e41545552455f5a45524f5f4144445245535300000000000000000000604482015290519081900360640190fd5b50505092915050565b7f00000000000000000000000000000000000000000000000000000000000000009056fe417070726f7665466f727761726465722861646472657373207369676e65722c75696e74323536206e6f6e63652c6164647265737320666f727761726465722c626f6f6c20617070726f76656429454950373132446f6d61696e28737472696e67206e616d652c75696e7432353620636861696e496429a2646970667358221220466096c21f896fb60ae74afd5bd6219d102ce2697b95c6ec121a0ccdd5537def64736f6c63430006050033"
}