{
  "abi": [
    {
      "inputs": [
        {
          "internalType": "uint256",
          "name": "eth2dai",
          "type": "uint256"
        }
      ],
      "stateMutability": "payable",
      "type": "constructor"
    },
    {
      "inputs": [
        {
          "internalType": "uint256",
          "name": "amountIn",
          "type": "uint256"
        },
        {
          "internalType": "address[]",
          "name": "path",
          "type": "address[]"
        }
      ],
      "name": "getAmountsOut",
      "outputs": [
        {
          "internalType": "uint256[]",
          "name": "amounts",
          "type": "uint256[]"
        }
      ],
      "stateMutability": "view",
      "type": "function"
    },
    {
      "inputs": [
        {
          "internalType": "uint256",
          "name": "amountOut",
          "type": "uint256"
        },
        {
          "internalType": "uint256",
          "name": "amountInMax",
          "type": "uint256"
        },
        {
          "internalType": "address[]",
          "name": "path",
          "type": "address[]"
        },
        {
          "internalType": "address",
          "name": "to",
          "type": "address"
        },
        {
          "internalType": "uint256",
          "name": "deadline",
          "type": "uint256"
        }
      ],
      "name": "swapTokensForExactETH",
      "outputs": [
        {
          "internalType": "uint256[]",
          "name": "amounts",
          "type": "uint256[]"
        }
      ],
      "stateMutability": "nonpayable",
      "type": "function"
    }
  ],
  "address": "0xB22A79C6785ce73AbE1D0909A2E6F5742897ca1b",
  "args": [
    1
  ],
  "bytecode": "0x60a06040526040516103f53803806103f58339818101604052602081101561002657600080fd5b50513461007a576040805162461bcd60e51b815260206004820152601560248201527f6e6565642065746820746f20626f6f7473747261700000000000000000000000604482015290519081900360640190fd5b60805260805161035e610097600039806102e0525061035e6000f3fe608060405234801561001057600080fd5b50600436106100365760003560e01c80634a25d94a1461003b578063d06ca61f14610123575b600080fd5b6100d3600480360360a081101561005157600080fd5b81359160208101359181019060608101604082013564010000000081111561007857600080fd5b82018360208201111561008a57600080fd5b803590602001918460208302840111640100000000831117156100ac57600080fd5b919350915073ffffffffffffffffffffffffffffffffffffffff813516906020013561019a565b60408051602080825283518183015283519192839290830191858101910280838360005b8381101561010f5781810151838201526020016100f7565b505050509050019250505060405180910390f35b6100d36004803603604081101561013957600080fd5b8135919081019060408101602082013564010000000081111561015b57600080fd5b82018360208201111561016d57600080fd5b8035906020019184602083028401116401000000008311171561018f57600080fd5b5090925090506102a4565b6060848460008181106101a957fe5b604080517f23b872dd000000000000000000000000000000000000000000000000000000008152336004820152306024820152604481018c905290516020928302949094013573ffffffffffffffffffffffffffffffffffffffff16936323b872dd9350606480830193928290030181600087803b15801561022a57600080fd5b505af115801561023e573d6000803e3d6000fd5b505050506040513d602081101561025457600080fd5b505060405173ffffffffffffffffffffffffffffffffffffffff84169088156108fc029089906000818181858888f19350505050158015610299573d6000803e3d6000fd5b509695505050505050565b604080516002808252606080830184529260208301908036833701905050905083816000815181106102d257fe5b6020026020010181815250507f0000000000000000000000000000000000000000000000000000000000000000848161030757fe5b048160018151811061031557fe5b602002602001018181525050939250505056fea264697066735822122017add224e4242087ed419bb81b0c7569d452e2fec1cd8ee2bd4e8e887868a98c64736f6c63430006050033"
}